{
  "contractName": "ReceiptManager",
  "abi": [
    {
      "inputs": [
        {
          "internalType": "uint256",
          "name": "_returnWindow",
          "type": "uint256"
        }
      ],
      "stateMutability": "nonpayable",
      "type": "constructor"
    },
    {
      "anonymous": false,
      "inputs": [
        {
          "indexed": false,
          "internalType": "string",
          "name": "message",
          "type": "string"
        },
        {
          "indexed": false,
          "internalType": "uint256",
          "name": "value",
          "type": "uint256"
        }
      ],
      "name": "DebugLog",
      "type": "event"
    },
    {
      "anonymous": false,
      "inputs": [
        {
          "indexed": true,
          "internalType": "address",
          "name": "seller",
          "type": "address"
        },
        {
          "indexed": false,
          "internalType": "uint256",
          "name": "amount",
          "type": "uint256"
        },
        {
          "indexed": false,
          "internalType": "uint256",
          "name": "receiptIndex",
          "type": "uint256"
        }
      ],
      "name": "FundsReleased",
      "type": "event"
    },
    {
      "anonymous": false,
      "inputs": [
        {
          "indexed": true,
          "internalType": "address",
          "name": "buyer",
          "type": "address"
        },
        {
          "indexed": false,
          "internalType": "uint256",
          "name": "purchaseAmount",
          "type": "uint256"
        },
        {
          "indexed": false,
          "internalType": "uint256",
          "name": "purchaseTime",
          "type": "uint256"
        },
        {
          "indexed": false,
          "internalType": "uint256",
          "name": "receiptIndex",
          "type": "uint256"
        }
      ],
      "name": "ReceiptIssued",
      "type": "event"
    },
    {
      "anonymous": false,
      "inputs": [
        {
          "indexed": true,
          "internalType": "address",
          "name": "buyer",
          "type": "address"
        },
        {
          "indexed": false,
          "internalType": "uint256",
          "name": "refundAmount",
          "type": "uint256"
        }
      ],
      "name": "RefundIssued",
      "type": "event"
    },
    {
      "inputs": [
        {
          "internalType": "address",
          "name": "",
          "type": "address"
        },
        {
          "internalType": "uint256",
          "name": "",
          "type": "uint256"
        }
      ],
      "name": "receipts",
      "outputs": [
        {
          "internalType": "uint256",
          "name": "purchaseAmount",
          "type": "uint256"
        },
        {
          "internalType": "uint256",
          "name": "purchaseTime",
          "type": "uint256"
        },
        {
          "internalType": "bool",
          "name": "refundIssued",
          "type": "bool"
        },
        {
          "internalType": "bool",
          "name": "fundsReleased",
          "type": "bool"
        }
      ],
      "stateMutability": "view",
      "type": "function",
      "constant": true
    },
    {
      "inputs": [],
      "name": "returnWindow",
      "outputs": [
        {
          "internalType": "uint256",
          "name": "",
          "type": "uint256"
        }
      ],
      "stateMutability": "view",
      "type": "function",
      "constant": true
    },
    {
      "inputs": [],
      "name": "seller",
      "outputs": [
        {
          "internalType": "address",
          "name": "",
          "type": "address"
        }
      ],
      "stateMutability": "view",
      "type": "function",
      "constant": true
    },
    {
      "inputs": [
        {
          "internalType": "address",
          "name": "_buyer",
          "type": "address"
        }
      ],
      "name": "issueReceipt",
      "outputs": [
        {
          "internalType": "uint256",
          "name": "",
          "type": "uint256"
        }
      ],
      "stateMutability": "payable",
      "type": "function",
      "payable": true
    },
    {
      "inputs": [
        {
          "internalType": "uint256",
          "name": "receiptIndex",
          "type": "uint256"
        }
      ],
      "name": "requestReturn",
      "outputs": [],
      "stateMutability": "nonpayable",
      "type": "function"
    },
    {
      "inputs": [
        {
          "internalType": "address",
          "name": "_buyer",
          "type": "address"
        },
        {
          "internalType": "uint256",
          "name": "receiptIndex",
          "type": "uint256"
        }
      ],
      "name": "releaseFunds",
      "outputs": [],
      "stateMutability": "nonpayable",
      "type": "function"
    },
    {
      "inputs": [
        {
          "internalType": "address",
          "name": "_buyer",
          "type": "address"
        },
        {
          "internalType": "uint256",
          "name": "receiptIndex",
          "type": "uint256"
        }
      ],
      "name": "getReceipt",
      "outputs": [
        {
          "internalType": "uint256",
          "name": "",
          "type": "uint256"
        },
        {
          "internalType": "uint256",
          "name": "",
          "type": "uint256"
        },
        {
          "internalType": "bool",
          "name": "",
          "type": "bool"
        },
        {
          "internalType": "bool",
          "name": "",
          "type": "bool"
        }
      ],
      "stateMutability": "view",
      "type": "function",
      "constant": true
    }
  ],
  "bytecode": "0x60806040523480156200001157600080fd5b50604051620015f6380380620015f68339818101604052810190620000379190620000ac565b336000806101000a81548173ffffffffffffffffffffffffffffffffffffffff021916908373ffffffffffffffffffffffffffffffffffffffff1602179055506201518081620000889190620000d8565b600181905550506200018c565b600081519050620000a68162000172565b92915050565b600060208284031215620000bf57600080fd5b6000620000cf8482850162000095565b91505092915050565b6000620000e58262000139565b9150620000f28362000139565b9250817fffffffffffffffffffffffffffffffffffffffffffffffffffffffffffffffff04831182151516156200012e576200012d62000143565b5b828202905092915050565b6000819050919050565b7f4e487b7100000000000000000000000000000000000000000000000000000000600052601160045260246000fd5b6200017d8162000139565b81146200018957600080fd5b50565b61145a806200019c6000396000f3fe6080604052600436106100705760003560e01c8063bae188801161004e578063bae1888014610109578063caa1da3914610149578063d6e982e514610174578063e06bb5ed1461019d57610070565b806308551a531461007557806358676582146100a0578063a08ad97d146100c9575b600080fd5b34801561008157600080fd5b5061008a6101cd565b604051610097919061109f565b60405180910390f35b3480156100ac57600080fd5b506100c760048036038101906100c29190610d57565b6101f1565b005b3480156100d557600080fd5b506100f060048036038101906100eb9190610d1b565b6104e1565b6040516101009493929190611268565b60405180910390f35b34801561011557600080fd5b50610130600480360381019061012b9190610d1b565b610548565b6040516101409493929190611268565b60405180910390f35b34801561015557600080fd5b5061015e6106d6565b60405161016b9190611224565b60405180910390f35b34801561018057600080fd5b5061019b60048036038101906101969190610d1b565b6106dc565b005b6101b760048036038101906101b29190610cf2565b610af1565b6040516101c49190611224565b60405180910390f35b60008054906101000a900473ffffffffffffffffffffffffffffffffffffffff1681565b600260003373ffffffffffffffffffffffffffffffffffffffff1673ffffffffffffffffffffffffffffffffffffffff168152602001908152602001600020805490508110610275576040517f08c379a000000000000000000000000000000000000000000000000000000000815260040161026c90611108565b60405180910390fd5b6000600260003373ffffffffffffffffffffffffffffffffffffffff1673ffffffffffffffffffffffffffffffffffffffff16815260200190815260200160002082815481106102ee577f4e487b7100000000000000000000000000000000000000000000000000000000600052603260045260246000fd5b906000526020600020906003020190507ff6ff2ad7fc16bda2a7d32462729431bce3ebe9b75cc7c9b35a0adfbf7e7bb9e64260405161032d9190611128565b60405180910390a17ff6ff2ad7fc16bda2a7d32462729431bce3ebe9b75cc7c9b35a0adfbf7e7bb9e6600154826001015461036891906112f5565b60405161037591906110ba565b60405180910390a1600154816001015461038f91906112f5565b4211156103d1576040517f08c379a00000000000000000000000000000000000000000000000000000000081526004016103c8906111e4565b60405180910390fd5b8060020160009054906101000a900460ff1615610423576040517f08c379a000000000000000000000000000000000000000000000000000000000815260040161041a90611184565b60405180910390fd5b60018160020160006101000a81548160ff0219169083151502179055503373ffffffffffffffffffffffffffffffffffffffff166108fc82600001549081150290604051600060405180830381858888f1935050505015801561048a573d6000803e3d6000fd5b503373ffffffffffffffffffffffffffffffffffffffff167fa171b6942063c6f2800ce40a780edce37baa2b618571b11eedd1e69e626e7d7682600001546040516104d59190611224565b60405180910390a25050565b600260205281600052604060002081815481106104fd57600080fd5b9060005260206000209060030201600091509150508060000154908060010154908060020160009054906101000a900460ff16908060020160019054906101000a900460ff16905084565b600080600080600260008773ffffffffffffffffffffffffffffffffffffffff1673ffffffffffffffffffffffffffffffffffffffff1681526020019081526020016000208054905085106105d2576040517f08c379a00000000000000000000000000000000000000000000000000000000081526004016105c990611108565b60405180910390fd5b6000600260008873ffffffffffffffffffffffffffffffffffffffff1673ffffffffffffffffffffffffffffffffffffffff168152602001908152602001600020868154811061064b577f4e487b7100000000000000000000000000000000000000000000000000000000600052603260045260246000fd5b906000526020600020906003020160405180608001604052908160008201548152602001600182015481526020016002820160009054906101000a900460ff161515151581526020016002820160019054906101000a900460ff1615151515815250509050806000015181602001518260400151836060015194509450945094505092959194509250565b60015481565b60008054906101000a900473ffffffffffffffffffffffffffffffffffffffff1673ffffffffffffffffffffffffffffffffffffffff163373ffffffffffffffffffffffffffffffffffffffff161461076a576040517f08c379a0000000000000000000000000000000000000000000000000000000008152600401610761906110e8565b60405180910390fd5b600260008373ffffffffffffffffffffffffffffffffffffffff1673ffffffffffffffffffffffffffffffffffffffff1681526020019081526020016000208054905081106107ee576040517f08c379a00000000000000000000000000000000000000000000000000000000081526004016107e590611108565b60405180910390fd5b6000600260008473ffffffffffffffffffffffffffffffffffffffff1673ffffffffffffffffffffffffffffffffffffffff1681526020019081526020016000208281548110610867577f4e487b7100000000000000000000000000000000000000000000000000000000600052603260045260246000fd5b906000526020600020906003020190508060020160009054906101000a900460ff16156108c9576040517f08c379a00000000000000000000000000000000000000000000000000000000081526004016108c090611184565b60405180910390fd5b7ff6ff2ad7fc16bda2a7d32462729431bce3ebe9b75cc7c9b35a0adfbf7e7bb9e6426040516108f89190611156565b60405180910390a17ff6ff2ad7fc16bda2a7d32462729431bce3ebe9b75cc7c9b35a0adfbf7e7bb9e6600154826001015461093391906112f5565b60405161094091906110ba565b60405180910390a1600154816001015461095a91906112f5565b42101561099c576040517f08c379a0000000000000000000000000000000000000000000000000000000008152600401610993906111a4565b60405180910390fd5b8060020160019054906101000a900460ff16156109ee576040517f08c379a00000000000000000000000000000000000000000000000000000000081526004016109e590611204565b60405180910390fd5b60008160000154905060018260020160016101000a81548160ff02191690831515021790555060008054906101000a900473ffffffffffffffffffffffffffffffffffffffff1673ffffffffffffffffffffffffffffffffffffffff166108fc829081150290604051600060405180830381858888f19350505050158015610a7a573d6000803e3d6000fd5b5060008054906101000a900473ffffffffffffffffffffffffffffffffffffffff1673ffffffffffffffffffffffffffffffffffffffff167fc90c76155d237557f9162f07cd0da2ff40418cd82028c0e89535270fb9de51048285604051610ae392919061123f565b60405180910390a250505050565b6000803411610b35576040517f08c379a0000000000000000000000000000000000000000000000000000000008152600401610b2c906111c4565b60405180910390fd5b600260008373ffffffffffffffffffffffffffffffffffffffff1673ffffffffffffffffffffffffffffffffffffffff1681526020019081526020016000206040518060800160405280348152602001428152602001600015158152602001600015158152509080600181540180825580915050600190039060005260206000209060030201600090919091909150600082015181600001556020820151816001015560408201518160020160006101000a81548160ff02191690831515021790555060608201518160020160016101000a81548160ff021916908315150217905550505060006001600260008573ffffffffffffffffffffffffffffffffffffffff1673ffffffffffffffffffffffffffffffffffffffff16815260200190815260200160002080549050610c6b919061134b565b90508273ffffffffffffffffffffffffffffffffffffffff167fb8284c3336f80ec0e5847514fe1c1275d0276018aca0a136ff4f2cee225f73a4344284604051610cb7939291906112ad565b60405180910390a280915050919050565b600081359050610cd7816113f6565b92915050565b600081359050610cec8161140d565b92915050565b600060208284031215610d0457600080fd5b6000610d1284828501610cc8565b91505092915050565b60008060408385031215610d2e57600080fd5b6000610d3c85828601610cc8565b9250506020610d4d85828601610cdd565b9150509250929050565b600060208284031215610d6957600080fd5b6000610d7784828501610cdd565b91505092915050565b610d898161137f565b82525050565b610d9881611391565b82525050565b6000610dab6017836112e4565b91507f526563656970742065787069726174696f6e2074696d650000000000000000006000830152602082019050919050565b6000610deb6027836112e4565b91507f4f6e6c79207468652073656c6c65722063616e20706572666f726d207468697360008301527f20616374696f6e000000000000000000000000000000000000000000000000006020830152604082019050919050565b6000610e516015836112e4565b91507f496e76616c6964207265636569707420696e64657800000000000000000000006000830152602082019050919050565b6000610e91602e836112e4565b91507f7265717565737452657475726e2063616c6c6564202d2043757272656e74206260008301527f6c6f636b2074696d657374616d700000000000000000000000000000000000006020830152604082019050919050565b6000610ef7602d836112e4565b91507f72656c6561736546756e64732063616c6c6564202d2043757272656e7420626c60008301527f6f636b2074696d657374616d70000000000000000000000000000000000000006020830152604082019050919050565b6000610f5d6015836112e4565b91507f526566756e6420616c72656164792069737375656400000000000000000000006000830152602082019050919050565b6000610f9d6018836112e4565b91507f52657475726e2077696e646f77207374696c6c206f70656e00000000000000006000830152602082019050919050565b6000610fdd600d836112e4565b91507f4e6f2066756e64732073656e74000000000000000000000000000000000000006000830152602082019050919050565b600061101d6018836112e4565b91507f52657475726e2077696e646f772068617320636c6f73656400000000000000006000830152602082019050919050565b600061105d6016836112e4565b91507f46756e647320616c72656164792072656c6561736564000000000000000000006000830152602082019050919050565b611099816113bd565b82525050565b60006020820190506110b46000830184610d80565b92915050565b600060408201905081810360008301526110d381610d9e565b90506110e26020830184611090565b92915050565b6000602082019050818103600083015261110181610dde565b9050919050565b6000602082019050818103600083015261112181610e44565b9050919050565b6000604082019050818103600083015261114181610e84565b90506111506020830184611090565b92915050565b6000604082019050818103600083015261116f81610eea565b905061117e6020830184611090565b92915050565b6000602082019050818103600083015261119d81610f50565b9050919050565b600060208201905081810360008301526111bd81610f90565b9050919050565b600060208201905081810360008301526111dd81610fd0565b9050919050565b600060208201905081810360008301526111fd81611010565b9050919050565b6000602082019050818103600083015261121d81611050565b9050919050565b60006020820190506112396000830184611090565b92915050565b60006040820190506112546000830185611090565b6112616020830184611090565b9392505050565b600060808201905061127d6000830187611090565b61128a6020830186611090565b6112976040830185610d8f565b6112a46060830184610d8f565b95945050505050565b60006060820190506112c26000830186611090565b6112cf6020830185611090565b6112dc6040830184611090565b949350505050565b600082825260208201905092915050565b6000611300826113bd565b915061130b836113bd565b9250827fffffffffffffffffffffffffffffffffffffffffffffffffffffffffffffffff038211156113405761133f6113c7565b5b828201905092915050565b6000611356826113bd565b9150611361836113bd565b925082821015611374576113736113c7565b5b828203905092915050565b600061138a8261139d565b9050919050565b60008115159050919050565b600073ffffffffffffffffffffffffffffffffffffffff82169050919050565b6000819050919050565b7f4e487b7100000000000000000000000000000000000000000000000000000000600052601160045260246000fd5b6113ff8161137f565b811461140a57600080fd5b50565b611416816113bd565b811461142157600080fd5b5056fea2646970667358221220f25391d4d6a334b02a052e2bd0b35be3f7555a20e9bf6f25c0c0c50b63f8adb464736f6c63430008000033",
  "immutableReferences": {},
  "source": "// SPDX-License-Identifier: MIT\npragma solidity ^0.8.0;\n\ncontract ReceiptManager {\n    address public seller;\n    uint256 public returnWindow; // e.g., 30 days\n\n    struct Receipt {\n        uint256 purchaseAmount;\n        uint256 purchaseTime;\n        bool refundIssued;\n        bool fundsReleased; // New flag to prevent duplicate fund release\n    }\n\n    // Mapping from buyer addresses to an array of their receipts\n    mapping(address => Receipt[]) public receipts;\n\n    event ReceiptIssued(address indexed buyer, uint256 purchaseAmount, uint256 purchaseTime, uint256 receiptIndex);\n    event RefundIssued(address indexed buyer, uint256 refundAmount);\n    event FundsReleased(address indexed seller, uint256 amount, uint256 receiptIndex);\n    event DebugLog(string message, uint256 value); // New event for logging;\n\n    constructor(uint256 _returnWindow) {\n        seller = msg.sender;\n        returnWindow = _returnWindow * 1 days; // Convert return window to seconds\n    }\n\n    modifier onlySeller() {\n        require(msg.sender == seller, \"Only the seller can perform this action\");\n        _;\n    }\n\n    // Function to issue the receipt and hold funds in escrow for a specific buyer\n    function issueReceipt(address _buyer) public payable returns (uint256) {\n        require(msg.value > 0, \"No funds sent\");\n\n        // Create a new receipt and store it in the buyer's list\n        receipts[_buyer].push(Receipt({\n            purchaseAmount: msg.value,\n            purchaseTime: block.timestamp,\n            refundIssued: false,\n            fundsReleased: false\n        }));\n\n        uint256 receiptIndex = receipts[_buyer].length - 1; // Index of the new receipt\n        emit ReceiptIssued(_buyer, msg.value, block.timestamp, receiptIndex);\n        \n        // Return the index of the newly created receipt\n        return receiptIndex;\n    }\n\n    // Buyer can request a return for a specific transaction within the return window\n    function requestReturn(uint256 receiptIndex) public {\n        require(receiptIndex < receipts[msg.sender].length, \"Invalid receipt index\");\n\n        // Access the specific receipt of the buyer (msg.sender)\n        Receipt storage receipt = receipts[msg.sender][receiptIndex];\n\n        emit DebugLog(\"requestReturn called - Current block timestamp\", block.timestamp);\n        emit DebugLog(\"Receipt expiration time\", receipt.purchaseTime + returnWindow);\n        \n        require(block.timestamp <= receipt.purchaseTime + returnWindow, \"Return window has closed\");\n        require(!receipt.refundIssued, \"Refund already issued\");\n\n        receipt.refundIssued = true;\n        payable(msg.sender).transfer(receipt.purchaseAmount);\n\n        emit RefundIssued(msg.sender, receipt.purchaseAmount);\n    }\n\n    // Function to release funds to the seller if the return window has expired\n    function releaseFunds(address _buyer, uint256 receiptIndex) public onlySeller {\n        require(receiptIndex < receipts[_buyer].length, \"Invalid receipt index\");\n\n        Receipt storage receipt = receipts[_buyer][receiptIndex];\n        require(!receipt.refundIssued, \"Refund already issued\");\n\n        emit DebugLog(\"releaseFunds called - Current block timestamp\", block.timestamp);\n        emit DebugLog(\"Receipt expiration time\", receipt.purchaseTime + returnWindow);\n\n        require(block.timestamp >= receipt.purchaseTime + returnWindow, \"Return window still open\");\n        require(!receipt.fundsReleased, \"Funds already released\"); // New check for funds release\n\n        uint256 amountToRelease = receipt.purchaseAmount;\n        receipt.fundsReleased = true; // Mark funds as released to prevent further releases\n\n        payable(seller).transfer(amountToRelease);\n\n        emit FundsReleased(seller, amountToRelease, receiptIndex);\n    }\n\n    // Function to retrieve receipt details\n    function getReceipt(address _buyer, uint256 receiptIndex) public view returns (uint256, uint256, bool, bool) {\n        require(receiptIndex < receipts[_buyer].length, \"Invalid receipt index\");\n\n        Receipt memory receipt = receipts[_buyer][receiptIndex];\n        return (receipt.purchaseAmount, receipt.purchaseTime, receipt.refundIssued, receipt.fundsReleased);\n    }\n}\n",
  "sourcePath": "/Users/amritramesh/Desktop/ReceiptDApp/contracts/ReceiptManager.sol",
  "compiler": {
    "name": "solc",
    "version": "0.8.0+commit.c7dfd78e.Emscripten.clang"
  },
  "schemaVersion": "3.4.16",
  "updatedAt": "2024-12-02T21:20:36.125Z",
  "networkType": "ethereum",
  "devdoc": {
    "kind": "dev",
    "methods": {},
    "version": 1
  },
  "userdoc": {
    "kind": "user",
    "methods": {},
    "version": 1
  }
}