{
  "contractName": "ReceiptManager",
  "abi": [
    {
      "inputs": [
        {
          "internalType": "uint256",
          "name": "_returnWindow",
          "type": "uint256"
        }
      ],
      "stateMutability": "nonpayable",
      "type": "constructor"
    },
    {
      "anonymous": false,
      "inputs": [
        {
          "indexed": true,
          "internalType": "address",
          "name": "seller",
          "type": "address"
        },
        {
          "indexed": false,
          "internalType": "uint256",
          "name": "amount",
          "type": "uint256"
        },
        {
          "indexed": false,
          "internalType": "uint256",
          "name": "receiptIndex",
          "type": "uint256"
        }
      ],
      "name": "FundsReleased",
      "type": "event"
    },
    {
      "anonymous": false,
      "inputs": [
        {
          "indexed": true,
          "internalType": "address",
          "name": "buyer",
          "type": "address"
        },
        {
          "indexed": false,
          "internalType": "uint256",
          "name": "purchaseAmount",
          "type": "uint256"
        },
        {
          "indexed": false,
          "internalType": "uint256",
          "name": "purchaseTime",
          "type": "uint256"
        },
        {
          "indexed": false,
          "internalType": "uint256",
          "name": "receiptIndex",
          "type": "uint256"
        }
      ],
      "name": "ReceiptIssued",
      "type": "event"
    },
    {
      "anonymous": false,
      "inputs": [
        {
          "indexed": true,
          "internalType": "address",
          "name": "buyer",
          "type": "address"
        },
        {
          "indexed": false,
          "internalType": "uint256",
          "name": "refundAmount",
          "type": "uint256"
        }
      ],
      "name": "RefundIssued",
      "type": "event"
    },
    {
      "inputs": [
        {
          "internalType": "address",
          "name": "",
          "type": "address"
        },
        {
          "internalType": "uint256",
          "name": "",
          "type": "uint256"
        }
      ],
      "name": "receipts",
      "outputs": [
        {
          "internalType": "uint256",
          "name": "purchaseAmount",
          "type": "uint256"
        },
        {
          "internalType": "uint256",
          "name": "purchaseTime",
          "type": "uint256"
        },
        {
          "internalType": "bool",
          "name": "refundIssued",
          "type": "bool"
        },
        {
          "internalType": "bool",
          "name": "fundsReleased",
          "type": "bool"
        }
      ],
      "stateMutability": "view",
      "type": "function",
      "constant": true
    },
    {
      "inputs": [],
      "name": "returnWindow",
      "outputs": [
        {
          "internalType": "uint256",
          "name": "",
          "type": "uint256"
        }
      ],
      "stateMutability": "view",
      "type": "function",
      "constant": true
    },
    {
      "inputs": [],
      "name": "seller",
      "outputs": [
        {
          "internalType": "address",
          "name": "",
          "type": "address"
        }
      ],
      "stateMutability": "view",
      "type": "function",
      "constant": true
    },
    {
      "inputs": [
        {
          "internalType": "address",
          "name": "_buyer",
          "type": "address"
        }
      ],
      "name": "issueReceipt",
      "outputs": [
        {
          "internalType": "uint256",
          "name": "",
          "type": "uint256"
        }
      ],
      "stateMutability": "payable",
      "type": "function",
      "payable": true
    },
    {
      "inputs": [
        {
          "internalType": "uint256",
          "name": "receiptIndex",
          "type": "uint256"
        }
      ],
      "name": "requestReturn",
      "outputs": [],
      "stateMutability": "nonpayable",
      "type": "function"
    },
    {
      "inputs": [
        {
          "internalType": "address",
          "name": "_buyer",
          "type": "address"
        },
        {
          "internalType": "uint256",
          "name": "receiptIndex",
          "type": "uint256"
        }
      ],
      "name": "releaseFunds",
      "outputs": [],
      "stateMutability": "nonpayable",
      "type": "function"
    },
    {
      "inputs": [
        {
          "internalType": "address",
          "name": "_buyer",
          "type": "address"
        },
        {
          "internalType": "uint256",
          "name": "receiptIndex",
          "type": "uint256"
        }
      ],
      "name": "getReceipt",
      "outputs": [
        {
          "internalType": "uint256",
          "name": "",
          "type": "uint256"
        },
        {
          "internalType": "uint256",
          "name": "",
          "type": "uint256"
        },
        {
          "internalType": "bool",
          "name": "",
          "type": "bool"
        },
        {
          "internalType": "bool",
          "name": "",
          "type": "bool"
        }
      ],
      "stateMutability": "view",
      "type": "function",
      "constant": true
    }
  ],
  "bytecode": "0x60806040523480156200001157600080fd5b50604051620013f1380380620013f18339818101604052810190620000379190620000ac565b336000806101000a81548173ffffffffffffffffffffffffffffffffffffffff021916908373ffffffffffffffffffffffffffffffffffffffff1602179055506201518081620000889190620000d8565b600181905550506200018c565b600081519050620000a68162000172565b92915050565b600060208284031215620000bf57600080fd5b6000620000cf8482850162000095565b91505092915050565b6000620000e58262000139565b9150620000f28362000139565b9250817fffffffffffffffffffffffffffffffffffffffffffffffffffffffffffffffff04831182151516156200012e576200012d62000143565b5b828202905092915050565b6000819050919050565b7f4e487b7100000000000000000000000000000000000000000000000000000000600052601160045260246000fd5b6200017d8162000139565b81146200018957600080fd5b50565b611255806200019c6000396000f3fe6080604052600436106100705760003560e01c8063bae188801161004e578063bae1888014610109578063caa1da3914610149578063d6e982e514610174578063e06bb5ed1461019d57610070565b806308551a531461007557806358676582146100a0578063a08ad97d146100c9575b600080fd5b34801561008157600080fd5b5061008a6101cd565b6040516100979190610f24565b60405180910390f35b3480156100ac57600080fd5b506100c760048036038101906100c29190610ce8565b6101f1565b005b3480156100d557600080fd5b506100f060048036038101906100eb9190610cac565b610462565b6040516101009493929190611063565b60405180910390f35b34801561011557600080fd5b50610130600480360381019061012b9190610cac565b6104c9565b6040516101409493929190611063565b60405180910390f35b34801561015557600080fd5b5061015e610657565b60405161016b919061101f565b60405180910390f35b34801561018057600080fd5b5061019b60048036038101906101969190610cac565b61065d565b005b6101b760048036038101906101b29190610c83565b6109f2565b6040516101c4919061101f565b60405180910390f35b60008054906101000a900473ffffffffffffffffffffffffffffffffffffffff1681565b600260003373ffffffffffffffffffffffffffffffffffffffff1673ffffffffffffffffffffffffffffffffffffffff168152602001908152602001600020805490508110610275576040517f08c379a000000000000000000000000000000000000000000000000000000000815260040161026c90610f5f565b60405180910390fd5b6000600260003373ffffffffffffffffffffffffffffffffffffffff1673ffffffffffffffffffffffffffffffffffffffff16815260200190815260200160002082815481106102ee577f4e487b7100000000000000000000000000000000000000000000000000000000600052603260045260246000fd5b90600052602060002090600302019050600154816001015461031091906110f0565b421115610352576040517f08c379a000000000000000000000000000000000000000000000000000000000815260040161034990610fdf565b60405180910390fd5b8060020160009054906101000a900460ff16156103a4576040517f08c379a000000000000000000000000000000000000000000000000000000000815260040161039b90610f7f565b60405180910390fd5b60018160020160006101000a81548160ff0219169083151502179055503373ffffffffffffffffffffffffffffffffffffffff166108fc82600001549081150290604051600060405180830381858888f1935050505015801561040b573d6000803e3d6000fd5b503373ffffffffffffffffffffffffffffffffffffffff167fa171b6942063c6f2800ce40a780edce37baa2b618571b11eedd1e69e626e7d768260000154604051610456919061101f565b60405180910390a25050565b6002602052816000526040600020818154811061047e57600080fd5b9060005260206000209060030201600091509150508060000154908060010154908060020160009054906101000a900460ff16908060020160019054906101000a900460ff16905084565b600080600080600260008773ffffffffffffffffffffffffffffffffffffffff1673ffffffffffffffffffffffffffffffffffffffff168152602001908152602001600020805490508510610553576040517f08c379a000000000000000000000000000000000000000000000000000000000815260040161054a90610f5f565b60405180910390fd5b6000600260008873ffffffffffffffffffffffffffffffffffffffff1673ffffffffffffffffffffffffffffffffffffffff16815260200190815260200160002086815481106105cc577f4e487b7100000000000000000000000000000000000000000000000000000000600052603260045260246000fd5b906000526020600020906003020160405180608001604052908160008201548152602001600182015481526020016002820160009054906101000a900460ff161515151581526020016002820160019054906101000a900460ff1615151515815250509050806000015181602001518260400151836060015194509450945094505092959194509250565b60015481565b60008054906101000a900473ffffffffffffffffffffffffffffffffffffffff1673ffffffffffffffffffffffffffffffffffffffff163373ffffffffffffffffffffffffffffffffffffffff16146106eb576040517f08c379a00000000000000000000000000000000000000000000000000000000081526004016106e290610f3f565b60405180910390fd5b600260008373ffffffffffffffffffffffffffffffffffffffff1673ffffffffffffffffffffffffffffffffffffffff16815260200190815260200160002080549050811061076f576040517f08c379a000000000000000000000000000000000000000000000000000000000815260040161076690610f5f565b60405180910390fd5b6000600260008473ffffffffffffffffffffffffffffffffffffffff1673ffffffffffffffffffffffffffffffffffffffff16815260200190815260200160002082815481106107e8577f4e487b7100000000000000000000000000000000000000000000000000000000600052603260045260246000fd5b906000526020600020906003020190508060020160009054906101000a900460ff161561084a576040517f08c379a000000000000000000000000000000000000000000000000000000000815260040161084190610f7f565b60405180910390fd5b600154816001015461085c91906110f0565b421161089d576040517f08c379a000000000000000000000000000000000000000000000000000000000815260040161089490610f9f565b60405180910390fd5b8060020160019054906101000a900460ff16156108ef576040517f08c379a00000000000000000000000000000000000000000000000000000000081526004016108e690610fff565b60405180910390fd5b60008160000154905060018260020160016101000a81548160ff02191690831515021790555060008054906101000a900473ffffffffffffffffffffffffffffffffffffffff1673ffffffffffffffffffffffffffffffffffffffff166108fc829081150290604051600060405180830381858888f1935050505015801561097b573d6000803e3d6000fd5b5060008054906101000a900473ffffffffffffffffffffffffffffffffffffffff1673ffffffffffffffffffffffffffffffffffffffff167fc90c76155d237557f9162f07cd0da2ff40418cd82028c0e89535270fb9de510482856040516109e492919061103a565b60405180910390a250505050565b60008060009054906101000a900473ffffffffffffffffffffffffffffffffffffffff1673ffffffffffffffffffffffffffffffffffffffff163373ffffffffffffffffffffffffffffffffffffffff1614610a83576040517f08c379a0000000000000000000000000000000000000000000000000000000008152600401610a7a90610f3f565b60405180910390fd5b60003411610ac6576040517f08c379a0000000000000000000000000000000000000000000000000000000008152600401610abd90610fbf565b60405180910390fd5b600260008373ffffffffffffffffffffffffffffffffffffffff1673ffffffffffffffffffffffffffffffffffffffff1681526020019081526020016000206040518060800160405280348152602001428152602001600015158152602001600015158152509080600181540180825580915050600190039060005260206000209060030201600090919091909150600082015181600001556020820151816001015560408201518160020160006101000a81548160ff02191690831515021790555060608201518160020160016101000a81548160ff021916908315150217905550505060006001600260008573ffffffffffffffffffffffffffffffffffffffff1673ffffffffffffffffffffffffffffffffffffffff16815260200190815260200160002080549050610bfc9190611146565b90508273ffffffffffffffffffffffffffffffffffffffff167fb8284c3336f80ec0e5847514fe1c1275d0276018aca0a136ff4f2cee225f73a4344284604051610c48939291906110a8565b60405180910390a280915050919050565b600081359050610c68816111f1565b92915050565b600081359050610c7d81611208565b92915050565b600060208284031215610c9557600080fd5b6000610ca384828501610c59565b91505092915050565b60008060408385031215610cbf57600080fd5b6000610ccd85828601610c59565b9250506020610cde85828601610c6e565b9150509250929050565b600060208284031215610cfa57600080fd5b6000610d0884828501610c6e565b91505092915050565b610d1a8161117a565b82525050565b610d298161118c565b82525050565b6000610d3c6027836110df565b91507f4f6e6c79207468652073656c6c65722063616e20706572666f726d207468697360008301527f20616374696f6e000000000000000000000000000000000000000000000000006020830152604082019050919050565b6000610da26015836110df565b91507f496e76616c6964207265636569707420696e64657800000000000000000000006000830152602082019050919050565b6000610de26015836110df565b91507f526566756e6420616c72656164792069737375656400000000000000000000006000830152602082019050919050565b6000610e226018836110df565b91507f52657475726e2077696e646f77207374696c6c206f70656e00000000000000006000830152602082019050919050565b6000610e62600d836110df565b91507f4e6f2066756e64732073656e74000000000000000000000000000000000000006000830152602082019050919050565b6000610ea26018836110df565b91507f52657475726e2077696e646f772068617320636c6f73656400000000000000006000830152602082019050919050565b6000610ee26016836110df565b91507f46756e647320616c72656164792072656c6561736564000000000000000000006000830152602082019050919050565b610f1e816111b8565b82525050565b6000602082019050610f396000830184610d11565b92915050565b60006020820190508181036000830152610f5881610d2f565b9050919050565b60006020820190508181036000830152610f7881610d95565b9050919050565b60006020820190508181036000830152610f9881610dd5565b9050919050565b60006020820190508181036000830152610fb881610e15565b9050919050565b60006020820190508181036000830152610fd881610e55565b9050919050565b60006020820190508181036000830152610ff881610e95565b9050919050565b6000602082019050818103600083015261101881610ed5565b9050919050565b60006020820190506110346000830184610f15565b92915050565b600060408201905061104f6000830185610f15565b61105c6020830184610f15565b9392505050565b60006080820190506110786000830187610f15565b6110856020830186610f15565b6110926040830185610d20565b61109f6060830184610d20565b95945050505050565b60006060820190506110bd6000830186610f15565b6110ca6020830185610f15565b6110d76040830184610f15565b949350505050565b600082825260208201905092915050565b60006110fb826111b8565b9150611106836111b8565b9250827fffffffffffffffffffffffffffffffffffffffffffffffffffffffffffffffff0382111561113b5761113a6111c2565b5b828201905092915050565b6000611151826111b8565b915061115c836111b8565b92508282101561116f5761116e6111c2565b5b828203905092915050565b600061118582611198565b9050919050565b60008115159050919050565b600073ffffffffffffffffffffffffffffffffffffffff82169050919050565b6000819050919050565b7f4e487b7100000000000000000000000000000000000000000000000000000000600052601160045260246000fd5b6111fa8161117a565b811461120557600080fd5b50565b611211816111b8565b811461121c57600080fd5b5056fea2646970667358221220b49225ea9aaa19f7d52cfa25c945d61d2df16e5a379fa59f8d0010252d77fb0564736f6c63430008000033",
  "immutableReferences": {},
  "source": "// SPDX-License-Identifier: MIT\npragma solidity ^0.8.0;\n\ncontract ReceiptManager {\n    address public seller;\n    uint256 public returnWindow; // e.g., 30 days\n\n    struct Receipt {\n        uint256 purchaseAmount;\n        uint256 purchaseTime;\n        bool refundIssued;\n        bool fundsReleased; // New flag to prevent duplicate fund release\n    }\n\n    // Mapping from buyer addresses to an array of their receipts\n    mapping(address => Receipt[]) public receipts;\n\n    event ReceiptIssued(address indexed buyer, uint256 purchaseAmount, uint256 purchaseTime, uint256 receiptIndex);\n    event RefundIssued(address indexed buyer, uint256 refundAmount);\n    event FundsReleased(address indexed seller, uint256 amount, uint256 receiptIndex);\n\n    constructor(uint256 _returnWindow) {\n        seller = msg.sender;\n        returnWindow = _returnWindow * 1 days; // Convert return window to seconds\n    }\n\n    modifier onlySeller() {\n        require(msg.sender == seller, \"Only the seller can perform this action\");\n        _;\n    }\n\n    // Function to issue the receipt and hold funds in escrow for a specific buyer\n    function issueReceipt(address _buyer) public payable onlySeller returns (uint256) {\n        require(msg.value > 0, \"No funds sent\");\n\n        // Create a new receipt and store it in the buyer's list\n        receipts[_buyer].push(Receipt({\n            purchaseAmount: msg.value,\n            purchaseTime: block.timestamp,\n            refundIssued: false,\n            fundsReleased: false\n        }));\n\n        uint256 receiptIndex = receipts[_buyer].length - 1; // Index of the new receipt\n        emit ReceiptIssued(_buyer, msg.value, block.timestamp, receiptIndex);\n        \n        // Return the index of the newly created receipt\n        return receiptIndex;\n    }\n\n    // Buyer can request a return for a specific transaction within the return window\n    function requestReturn(uint256 receiptIndex) public {\n        require(receiptIndex < receipts[msg.sender].length, \"Invalid receipt index\");\n\n        // Access the specific receipt of the buyer (msg.sender)\n        Receipt storage receipt = receipts[msg.sender][receiptIndex];\n        \n        require(block.timestamp <= receipt.purchaseTime + returnWindow, \"Return window has closed\");\n        require(!receipt.refundIssued, \"Refund already issued\");\n\n        receipt.refundIssued = true;\n        payable(msg.sender).transfer(receipt.purchaseAmount);\n\n        emit RefundIssued(msg.sender, receipt.purchaseAmount);\n    }\n\n    // Function to release funds to the seller if the return window has expired\n    function releaseFunds(address _buyer, uint256 receiptIndex) public onlySeller {\n        require(receiptIndex < receipts[_buyer].length, \"Invalid receipt index\");\n\n        Receipt storage receipt = receipts[_buyer][receiptIndex];\n        require(!receipt.refundIssued, \"Refund already issued\");\n        require(block.timestamp > receipt.purchaseTime + returnWindow, \"Return window still open\");\n        require(!receipt.fundsReleased, \"Funds already released\"); // New check for funds release\n\n        uint256 amountToRelease = receipt.purchaseAmount;\n        receipt.fundsReleased = true; // Mark funds as released to prevent further releases\n\n        payable(seller).transfer(amountToRelease);\n\n        emit FundsReleased(seller, amountToRelease, receiptIndex);\n    }\n\n    // Function to retrieve receipt details\n    function getReceipt(address _buyer, uint256 receiptIndex) public view returns (uint256, uint256, bool, bool) {\n        require(receiptIndex < receipts[_buyer].length, \"Invalid receipt index\");\n\n        Receipt memory receipt = receipts[_buyer][receiptIndex];\n        return (receipt.purchaseAmount, receipt.purchaseTime, receipt.refundIssued, receipt.fundsReleased);\n    }\n}\n",
  "sourcePath": "/Users/amritramesh/Desktop/ReceiptDApp/contracts/ReceiptManager.sol",
  "compiler": {
    "name": "solc",
    "version": "0.8.0+commit.c7dfd78e.Emscripten.clang"
  },
  "schemaVersion": "3.4.16",
  "updatedAt": "2024-11-12T15:40:37.005Z",
  "networkType": "ethereum",
  "devdoc": {
    "kind": "dev",
    "methods": {},
    "version": 1
  },
  "userdoc": {
    "kind": "user",
    "methods": {},
    "version": 1
  }
}